:020000040800F2
:10000000D8090020E1000008CD200008450B0008B9
:1000100000000000000000000000000000000000E0
:10002000000000000000000000000000D1200008D7
:100030000000000000000000CF200008D9230008C5
:10004000F3000008F3000008F3000008F3000008C4
:10005000F300000825060008F3000008F30000087C
:1000600000000000F3000008F3000008F30000089F
:10007000F3000008F3000008F3000008000000008F
:10008000F3000008F300000800000000F30000087F
:10009000F3000008F3000008F3000008790B0008E3
:1000A000F3000008F3000008F3000008F300000864
:1000B000F300000800000000000000000000000045
:1000C000490B000800000000F300000803488546C3
:1000D00000F0A4F90048004781370008D809002043
:1000E0000448804704480047FEE7FEE7FEE7FEE7D6
:1000F000FEE7FEE701240008CD000008F8B502463F
:100100004A40D40F42004B0052085B089A4202D288
:100110000246084611464A0023D0C30D4A00DDB20C
:10012000120EAD1A202D35DA49020126490AF605CC
:100130008A19002C00D0524220214F1B1146B94091
:100140002A411018C20D9A4221D0002C17D0012D3F
:1001500008DCDA05801AD20F8019D207DBB200F072
:1001600023F9F8BDDA05801A012340001B06C018E8
:1001700080185A428018CA0F1043490007E0490806
:10018000C2071143DA05801A80194008801800F070
:1001900003F9F8BD61000122511A001BF7E70122A3
:1001A000D2075140AAE70122D2075040A6E70246F3
:1001B00070B54A40D30FDB0740002DD04A002AD04B
:1001C000010E140E000212020919400A520A841884
:1001D000E50104465443000A120A2E045043A419B0
:1001E0004219200CC543AA18120C0125AD03521C5C
:1001F000521912047F39240400D0521C104301D438
:100200004000491EC2B20C06C0092018401C40081C
:10021000802A02D003E0002070BD40084000002981
:1002200000DA0020184370BD70B502464A40D50F71
:1002300040004A00ED0740085208002814D0002A68
:1002400012D0C40DD30D41020120C0055202490A4B
:10025000520AE41A091812187D34914201D3641C21
:1002600000E04900002C01DA002070BD002391421B
:1002700001D3891A0343400849000028F7D1002917
:100280000AD0914202D10121C90705E0914201D271
:10029000012101E00121C943E005C018401900F027
:1002A0007BF870BD0122D207002800DB101A00295C
:1002B00000DB511A814201D80120704700207047AD
:1002C0000122D207002800DB101A002900DB511A96
:1002D000814201D301207047002070470122D207DC
:1002E000002800DB101A002900DB511A814201D9D5
:1002F000012070470020704710B5002904DB0C4630
:100300000121C9074042A141002B04DB1C46012307
:10031000DB075242A341801A994101D3012010BD4D
:10032000002010BDC217C10F504010B54018CA07B9
:100330009623002100F038F810BD10B50022962356
:10034000114600F031F810BD410040020122400A80
:10035000D205090E80187F2901DA002070479629FE
:1003600003DC9622511AC84070479639884070477E
:10037000C20FD207400040080BD0C10D0723DB019C
:10038000C91840020905400A1143C2084007114339
:100390007047002001467047002904DA401C4900DC
:1003A00001D140084000704770B40024050C05D10D
:1003B0001024000402D1002921D01124050E01D1FE
:1003C00000020834050F01D10001241D850F01D161
:1003D0008000A41C002801DB4000641C002908D018
:1003E00020252E1B0D46F540A14000D001212943B8
:1003F000084301061B1B000ADB1D02D5002070BC50
:100400007047DB05181880180029F8DA401C4900ED
:10041000F5D170BC4008400070470000064C012533
:10042000064E05E0E36807CC2B430C3C984710349C
:10043000B442F7D3FFF74EFE183F0008383F0008DC
:1004400080B588B050484168006800F037FB0790DD
:100450003C480078C007002822D1FFE707983A49B6
:10046000FFF72EFF002805D1FFE738480178491C27
:10047000017003E0354800210170FFE705A800F096
:1004800001FB414806994160059901602D48012111
:100490000170002002900846029901F01BFE4FE017
:1004A00007982949FFF70CFF002825D1FFE72748C7
:1004B0000178491C01700078012807D1FFE7244822
:1004C0000121017021480021017014E01F480078CB
:1004D00002280FD1FFE71E480078C007002809D086
:1004E000FFE71B48002101701A48012202701748DB
:1004F0000170FFE7FFE703E0144800210170FFE708
:1005000007983F210906FFF7CDFE002807D1FFE736
:100510001148012101700D4800210170FFE703A877
:1005200000F0B0FA18480499416003990160054849
:100530000021017001200190019901F0CBFDFFE73E
:1005400008B080BD7D0000209A99993E7A00002075
:10055000790000207B0000207C00002080B584B062
:1005600001200190019901F0B5FD064800F06EF8F8
:1005700002A800F087FA04480399416002990160DB
:1005800004B080BD410400088000002080B584B024
:10059000164840F200410390029100F08BF81E498A
:1005A000039A01901046029A00F0FEF8009004B001
:1005B00080BDC04680B584B0014603AA1080108873
:1005C0000A4A801802AA02230191114600921A4693
:1005D00000F0C4F80098008804B080BD80B50E49D2
:1005E000024840F2004200F0B9F880BD007C0008EB
:1005F000B0B584B00A46034603AC208002A801804F
:1006000002982188044C65186054000A68700193B0
:10061000009204B0B0BDC0468800002080B5FFF74E
:10062000DDFF80BD80B5022002F076FC002809D0F5
:10063000FFE71F480068002804D0FFE71C48006857
:100640008047FFE7022002F05DFC80BD82B00146DA
:1006500001900198164A1060009102B07047C046A0
:1006600080B584B040F2006003F026FB1048002102
:100670000160FA48022203900291029B01921A46FD
:10068000019B02F0C0FD039800F0B6F9012103F0D0
:100690004FFB01980299019A02F0C4FB05200199D1
:1006A00003F097F8032002F02DFC04B080BDC04693
:1006B0008804002080B58AB00A4603460890079156
:1006C0000392029302F0E4FC06A80021017007984F
:1006D00008995C4A511A884206D9FFE702F042FCA9
:1006E00009A80021017035E00798800A049007A846
:1006F00000888005002804D0FFE70498401C04907F
:10070000FFE700200590FFE7059804990022884242
:10071000019207DAFFE706A800780021091A48418C
:100720000190FFE70198C00700280DD0FFE7089867
:1007300005998902401802F01BFC06A90870FFE722
:100740000598401C0590DFE702F00CFC09A8012188
:100750000170FFE709A800780AB080BDB0B587B086
:1007600013460C4605460690059104A8028003A88E
:1007700000210180029301940095FFE703A80088FF
:1007800004A9098888420CDAFFE7069803A90988BA
:10079000405C059A5054FFE70398401C03A9088069
:1007A000ECE707B0B0BD0000B0B58AB013460C4608
:1007B00005460890079106A802800898C00E0028F8
:1007C00004930394029505D0FFE708981D498842D9
:1007D00004D3FFE709A8002101702EE002F058FCC5
:1007E00005A800210180FFE705A8008806A909885F
:1007F00088421CDAFFE7FFE7089805A909884058F6
:10080000079A515888420AD0FFE7089805A9098835
:100810004018079A515802F04FFC019000E000E0A8
:10082000EAE7FFE70598001D05A90880DCE702F06C
:1008300099FB09A801210170FFE709A800780AB017
:10084000B0BDC0460080000882B00146019001980A
:10085000826800688261009102B07047F0B585B08F
:10086000294803F029FA294803F026FA284803F01A
:1008700023FA284803F020FA04A800210170FFE7BA
:1008800004A8007807283CDCFFE704A801781822B8
:1008900013464B437A49CB181F4CDC60037814464F
:1008A0005C430B191D4C1C61037814465C430B1907
:1008B0001B4C5C61037814465C430D190C265E43A7
:1008C000184B9F199B590B51BB68AB607B686B60E1
:1008D000037814465C430B19039018460292019169
:1008E00000F02CF803980178029A4A4301998A187B
:1008F000136910469847FFE70498401C04A9087044
:10090000BEE705B0F0BDC0461105000012050000AD
:100910001305000016050000490800082909000811
:10092000750900080000002082B00146019001987E
:10093000826800688262009102B0704710B584B08E
:10094000014603900398026843688068002402907F
:100950001046019119462246029B009402F053FC76
:1009600003980168836803220846009902F09CFC02
:1009700004B010BD82B00146019001988268006801
:10098000C262009102B0704780B582B00F484168E2
:10099000006800F093F80E49FFF784FC00280DD1A1
:1009A000FFE70C480178012211406B4619700021C5
:1009B00001701878104001A9087003E001A8002117
:1009C0000170FFE701A8007802B080BD8000002020
:1009D000CDCC4C3E7900002081B006480178012240
:1009E00011406B461970002101701878104001B059
:1009F0007047C0467C00002084B0014602900298F7
:100A00000922D2069042019100900FD0FFE71348CF
:100A1000009981420ED0FFE71148009981420DD024
:100A2000FFE71048009981420CD00FE003A8002195
:100A300001700FE003A8012101700BE003A802215F
:100A4000017007E003A80521017003E003A800215D
:100A50000170FFE703A8007804B070470004004865
:100A6000000800480014004882B0014601AA107036
:100A700010781822424302488018009102B0704753
:100A80008C04002010B582B0014601AA0023137027
:100A9000094B1B686C24B3FBF4F340F2E834E31A0F
:100AA000254CE380019B5B1C1370626842602268E6
:100AB0000260009102B010BD18E000E010B58EB0E9
:100AC0000A4603460D910C901B4801680C9C091BBB
:100AD0000990084608930792FFF72FFC0421099A12
:100AE000535E0CAC615E591A069008460594FFF7F8
:100AF00019FC1249FFF798FB0699049008460499DF
:100B0000FFF7FCFA0AA9039008460291FFF7BAFF23
:100B1000062002990A5E059B185E101AFFF702FC78
:100B20000749FFF781FB0399019008460199FFF7F8
:100B3000E5FA0EB010BDC046CC05002000007A4496
:100B400000247449FFE7FEE780B59548094902F0A3
:100B500073FD00280CD0FFE79148064902F046FDDE
:100B60006548002101706548017065480170FFE724
:100B700080BDC04608010A0580B588B088485A493A
:100B800002F05AFD002808D0FFE75C4801210170FF
:100B90008348554902F02AFDA4E08148534902F0F8
:100BA0004BFD002834D0FFE754480078002811D0CE
:100BB000FFE75348007800280CD1FFE7784802F09F
:100BC000C7FC4D4908704E48012101704B48002177
:100BD000017018E0724802F0BBFC07A90870724867
:100BE0000068002809D0FFE76F480068424909788B
:100BF00007AA01F096FB069000E0FFE73E48017867
:100C0000491C0170FFE76648384902F0EFFC68E0D4
:100C10006348374902F010FD002841D0FFE737480C
:100C2000007800281DD0FFE75F48006800280ED03C
:100C3000FFE75D48006830490A78531C0B7007A92C
:100C400005911146059A01F03BFB049000E0FFE797
:100C500007A80178524802F084FC2848002101705E
:100C600019E05148006800280ED0FFE74E480068A0
:100C700021490A78531C0B7007A903911146039A66
:100C800001F01EFB029000E0FFE707A8017844484E
:100C900002F067FCFFE74248154902F0A7FC1FE09D
:100CA0003F48144902F0C8FC002818D0FFE712485A
:100CB00000210170114801701148017038480190FD
:100CC00002F05CFC40F20B1001990090084600997C
:100CD00002F05FFC0198009902F071FCFFE7FFE76A
:100CE000FFE7FFE708B080BD09010105090106051E
:100CF0000901070509010405C80500207800002046
:100D0000C905002082B0014601900198264A106072
:100D1000009102B07047C04680B584B01F4802F011
:100D2000CBFF1F4848F20001039002F00FFD0020A6
:100D3000039902900846029902F008FD19490398A8
:100D4000029A02F01BFB762303980299029A02F0A2
:100D5000D1FC15480299016040F20811039802F095
:100D60002EFC40F20911039802F029FC40F20A110E
:100D7000039802F024FC17200121019102F029FDC3
:100D80002020019902F025FD039802F0F7FB03985B
:100D9000019902F0D7FA04B080BDC04615070000E3
:100DA00000540040305705004C05002080B588B045
:100DB0001A4802F081FF1A4801214022079006914B
:100DC000059202F0B7F98020079904900846069929
:100DD000049A02F0AFF902200021079A039010460E
:100DE000039B02911946029A059B02F00CFA03201C
:100DF0000799019008460699019A059B02F054FA5A
:100E000007980399029A049B02F0FDF90798069946
:100E1000019A049B02F048FA08B080BD1205000058
:100E20000004004880B5FFF7C1FFFFF775FF80BDE4
:100E300080B5D8B057A80021017055A80170529113
:100E4000519150914F914E914D914C914B914A91AE
:100E50004991052001F004FAFFE700F0D1FF55A801
:100E6000007801280ED1FFE755A80021017002206B
:100E700001F0F6F947A8FFF705FE48985490479807
:100E80005390FFE754995398FFF718FEFFF770FA55
:100E9000FA4AFB4BFFF730FA00280CD1FFE755A8C0
:100EA0000078002807D1FFE7052001F0D9F955A8FF
:100EB00003210170FFE7FFF767FD002801D100F073
:100EC000EDFC57A80078002800D026E100204D90C6
:100ED00049904E904A904F904B9050904C9056A90C
:100EE0000870FFE756A80078312800DD9AE0E54851
:100EF00001680A69469008469047E34801680A6914
:100F0000459008469047E14801680A6944900846C0
:100F10009047DF4801680A694390084690470520DA
:100F2000429001F057FEDB4801680988419008466D
:100F3000FFF7F8F94D99409008464099FFF7DEF821
:100F40004D90419801684888FFF7ECF94E993F9021
:100F500008463F99FFF7D2F84E904198016888887B
:100F6000FFF7E0F94F993E9008463E99FFF7C6F823
:100F70004F9041980168C888FFF7D4F950993D9087
:100F800008463D99FFF7BAF8509046980168CA683C
:100F90000846904745980168CA68084690474498B3
:100FA0000168CA680846904743980168CA680846BD
:100FB0009047429801F00EFE419801680888FFF7BB
:100FC000B1F949993C9008463C99FFF797F8499048
:100FD000419801684888FFF7A5F94A993B9008466F
:100FE0003B99FFF78BF84A90419801688888FFF792
:100FF00099F94B993A9008463A99FFF77FF84B9048
:1010000041980168C888FFF78DF94C9939900846D6
:101010003999FFF773F84C90FFE75698401C56A992
:1010200008705FE74D989C493891FFF7FDF84D90A7
:101030004E983899FFF7F8F84E904F983899FFF787
:10104000F3F84F9050983899FFF7EEF85090499880
:101050003899FFF7E9F849904A983899FFF7E4F88A
:101060004A904B983899FFF7DFF84B904C98389995
:10107000FFF7DAF84C9049984D99FFF790F83899B6
:10108000FFF73CF8FFF760F951A908804A984E9A9B
:1010900037911146FFF783F83899FFF72FF8FFF7DC
:1010A00053F9379948804B984F99FFF778F838995A
:1010B000FFF724F8FFF748F9379988804C98509942
:1010C000FFF76DF83899FFF719F8FFF73DF93799F1
:1010D000C8805198714A10804888508052989080FA
:1010E000C888D08009880020FFF782FA37984188A5
:1010F0000220FFF77DFA379881880420FFF778FAFD
:101100003798C1880620FFF773FA5798401C57A9F3
:10111000087055A801210170BFE357A80078012885
:1011200000D087E100204D9049904E904A904F901A
:101130004B9050904C9056A90870FFE756A8007845
:10114000312800DDACE04F4801680A693690084656
:1011500090474D4801680A693590084690474B48CA
:1011600001680A69349008469047494801680A694D
:101170003390084690470120329001F02BFD4548FE
:101180000168098831900846FFF7CCF84D993090F6
:1011900008463099FEF7B2FF4D90319801684888B3
:1011A000FFF7C0F84E992F9008462F99FEF7A6FF3B
:1011B0004E90319801688888FFF7B4F84F992E90C7
:1011C00008462E99FEF79AFF4F9031980168C8881B
:1011D000FFF7A8F850992D9008462D99FEF78EFF3D
:1011E000509036980168CA6808469047359801685B
:1011F000CA680846904734980168CA68084690470C
:1012000033980168CA6808469047329801F0E2FCBA
:10121000319801680888FFF785F849992C900846AD
:101220002C99FEF76BFF4990319801684888FFF7C9
:1012300079F84A992B9008462B99FEF75FFF4A9060
:10124000319801688888FFF76DF84B992A90084615
:101250002A99FEF753FF4B9031980168C888FFF731
:1012600061F84C99299008462999FEF747FF4C9060
:10127000FFE75698401C56A908705FE733333333B5
:101280003333E33F5005002054050020580500206B
:101290005C05002060050020000048426405002035
:1012A0004D98F7492891FEF7BFFF4D904E98289929
:1012B000FEF7BAFF4E904F982899FEF7B5FF4F9072
:1012C00050982899FEF7B0FF509049982899FEF75A
:1012D000ABFF49904A982899FEF7A6FF4A904B9891
:1012E0002899FEF7A1FF4B904C982899FEF79CFF98
:1012F0004C9049984D99FEF752FF2899FEF74FFF01
:101300000021FEF7DDFF002803D1FFE70020279032
:1013100008E049984D99FEF742FFDA49FEF7EEFEE4
:101320002790FFE72798FFF70FF851A908804A9800
:101330004E99FEF734FFD349FEF7E0FE0021FEF799
:10134000BFFF002803D1FFE70020269008E04A985D
:101350004E99FEF724FFCB49FEF7D0FE2690FFE71B
:101360002698FEF7F1FF51A948804B984F99FEF758
:1013700016FFC449FEF7C2FE0021FEF7A1FF0028B8
:1013800003D1FFE70020259008E04B984F99FEF726
:1013900006FFBC49FEF7B2FE2590FFE72598FEF751
:1013A000D3FF51A988804C985099FEF7F8FEB549B3
:1013B000FEF7A4FE0021FEF783FF002803D1FFE71C
:1013C0000020249008E04C985099FEF7E8FEAD49C3
:1013D000FEF794FE2490FFE72498FEF7B5FF51A98D
:1013E000C8805198A84A10804888508052989080B0
:1013F000C888D0800888082223901046239A22911A
:101400001146FFF7F5F8229841880A20FFF7F0F817
:10141000229881880C20FFF7EBF82298C1880E20D3
:10142000FFF7E6F85798401C57A9087055A8012106
:10143000017031E257A80078022800D01AE100209C
:101440004D9049904E904A904F904B9050904C90B8
:1014500056A90870FFE756A80078312800DD9AE009
:101460008A4801680A6921900846904788480168BF
:101470000A69209008469047864801680A691F90CB
:1014800008469047844801680A691E9008469047BC
:1014900001201D9001F09EFB8048016809881C9086
:1014A0000846FEF73FFF4D991B9008461B99FEF733
:1014B00025FE4D901C9801684888FEF733FF4E9931
:1014C0001A9008461A99FEF719FE4E901C9801686A
:1014D0008888FEF727FF4F99199008461999FEF75B
:1014E0000DFE4F901C980168C888FEF71BFF5099AD
:1014F000189008461899FEF701FE5090219801684F
:10150000CA680846904720980168CA68084690470C
:101510001F980168CA68084690471E980168CA6803
:10152000084690471D9801F055FB1C9801680888F3
:10153000FEF7F8FE4999179008461799FEF7DEFD69
:1015400049901C9801684888FEF7ECFE4A9916906D
:1015500008461699FEF7D2FD4A901C9801688888C3
:10156000FEF7E0FE4B99159008461599FEF7C6FD6B
:101570004B901C980168C888FEF7D4FE4C991490D3
:1015800008461499FEF7BAFD4C90FFE75698401CA8
:1015900056A908705FE74D98C2491391FEF744FEC3
:1015A0004D904E981399FEF73FFE4E904F98139929
:1015B000FEF73AFE4F9050981399FEF735FE509083
:1015C00049981399FEF730FE49904A981399FEF70F
:1015D0002BFE4A904B981399FEF726FE4B904C98A1
:1015E0001399FEF721FE4C9049984D99FEF7D7FDCF
:1015F000FEF7AAFE51A908804A984E9A1291114608
:10160000FEF7CDFDFEF7A0FE129948804B984F994A
:10161000FEF7C5FDFEF798FE129988804C98509908
:10162000FEF7BDFDFEF790FE1299C8805198A44ABE
:1016300010804888508052989080C888D08009884F
:101640001020FEF7D5FF129841881220FEF7D0FF38
:10165000129881881420FEF7CBFF1298C1881620BB
:10166000FEF7C6FF5798401C57A9087055A80121DE
:10167000017010E157A80078032811D00AE1C04694
:1016800000004842000048C27805002050050020B4
:1016900054050020580500205C050020600500204E
:1016A00000204D9049904E904A904F904B90509012
:1016B0004C9056A90870FFE756A80078312800DD45
:1016C0009AE07A4801680A6911900846904778487C
:1016D00001680A69109008469047764801680A69CF
:1016E0000F9008469047744801680A690E900846B2
:1016F000904701200D9001F06DFA7048016809884B
:101700000C900846FEF70EFE4D990B9008460B997B
:10171000FEF7F4FC4D900C9801684888FEF702FE35
:101720004E990A9008460A99FEF7E8FC4E900C98EC
:1017300001688888FEF7F6FD4F99099008460999D7
:10174000FEF7DCFC4F900C980168C888FEF7EAFDB4
:101750005099089008460899FEF7D0FC50901198CF
:101760000168CA680846904710980168CA68084628
:1017700090470F980168CA68084690470E9801681C
:10178000CA68084690470D9801F024FA0C98016841
:101790000888FEF7C7FD4999079008460799FEF7A4
:1017A000ADFC49900C9801684888FEF7BBFD4A994A
:1017B000069008460699FEF7A1FC4A900C9801682D
:1017C0008888FEF7AFFD4B99059008460599FEF70E
:1017D00095FC4B900C980168C888FEF7A3FD4C99C6
:1017E000049008460499FEF789FC4C90FFE7569850
:1017F000401C56A908705FE74D982A490391FEF7EF
:1018000013FD4D904E980399FEF70EFD4E904F98A4
:101810000399FEF709FD4F9050980399FEF704FDD8
:10182000509049980399FEF7FFFC49904A98039914
:10183000FEF7FAFC4A904B980399FEF7F5FC4B90A3
:101840004C980399FEF7F0FC4C904A984E99FEF79D
:10185000A6FC4B994F9A02901046FEF7A0FC029905
:10186000019008460199FEF749FC0F490860086895
:10187000FEF76AFD1821009008460099FEF7B8FEB1
:10188000FEF784FE5798401C57A90870042000F00A
:10189000E7FC05E0FFE7FFE7FFE7FFE7FFF7DDFA1B
:1018A00058B080BD000048426C0500205005002063
:1018B00054050020580500205C050020600500202C
:1018C000A405002080B5AAB0DC4841680068FFF795
:1018D000F5F8DB49FEF7E6FC002800D0ACE126A8CD
:1018E000FFF7D0F8D5482799416026990160D5487F
:1018F0000078C00700281FD0FFE7D2480021017000
:10190000D148006801684068D54A90801180000C79
:10191000D080080C5080CE48006801698847CD48C7
:10192000006801698847CC48006801698847CB484E
:101930000068016988471EE0C24801210170C24861
:10194000006801684068C14A90801180000CD08016
:10195000080C5080BE480068C1688847BD480068D0
:10196000C1688847BC480068C1688847BB480068B0
:10197000C1688847FFE7BA480088B4490988401A17
:10198000FEF7D0FC29902998B64909882590084689
:10199000FEF7C8FC2599249008462499FEF782FC9E
:1019A000002838D1FFE72998AF49098823900846D5
:1019B000FEF7B8FC2399229008462299FEF780FC96
:1019C000002828D1FFE72998A849098821900846CE
:1019D000FEF7A8FC2199209008462099FEF762FCAA
:1019E00000280BD1FFE7A2480178082211430170BB
:1019F0000020012100F0BCFB1F900BE09C48017807
:101A0000F7221140017000201E901E9900F0B0FBDB
:101A10001D90FFE7FFE79248C0888C49C988401AAB
:101A2000FEF780FC29902998E649C9881C90084651
:101A3000FEF778FC1C991B9008461B99FEF732FCB8
:101A4000002837D1FFE72998DD49C9881A90084650
:101A5000FEF768FC1A99199008461999FEF730FCB0
:101A6000002827D1FFE72998D749C9881890084648
:101A7000FEF758FC1899179008461799FEF712FCC4
:101A800000280BD1FFE77A48017801221143017049
:101A90000320114600F06CFB16900AE074480178B0
:101AA000FE22114001700320002100F061FB15901F
:101AB000FFE7FFE76A48408864494988401AFEF713
:101AC00031FC29902998BF49498814900846FEF7AF
:101AD00029FC1499139008461399FEF7E3FB00289C
:101AE00038D1FFE72998B649498812900846FEF791
:101AF00019FC1299119008461199FEF7E1FB002894
:101B000028D1FFE72998B049498810900846FEF788
:101B100009FC10990F9008460F99FEF7C3FB0028A7
:101B20000CD1FFE7524801780422114301700120D3
:101B30000E900E9900F01CFB0D900AE04C480178C5
:101B4000FB22114001700120002100F011FB0C90DC
:101B5000FFE7FFE7424880883C498988401AFEF742
:101B6000E1FB28902898974989880B900846FEF752
:101B7000D9FB0B990A9008460A99FEF793FB0028B7
:101B800037D1FFE728988E49898809900846FEF7E3
:101B9000C9FB0999089008460899FEF791FB0028AF
:101BA00027D1FFE728988849898807900846FEF7DB
:101BB000B9FB0799069008460699FEF773FB0028C3
:101BC0000BD1FFE72A48017802221143017001215D
:101BD000104600F0CDFA05900AE025480178FD2274
:101BE000114001700220002100F0C2FA0490FFE7CA
:101BF000FFE729982899FEF7D2FA74490968FEF799
:101C0000CEFA1C49FEF7D3FA1B49FEF777FAFEF726
:101C10009BFB1A4908706848154A002303900291FB
:101C2000194600F07EFB0121039A01901046029AAA
:101C300000F077FB0090FFE72AB080BD9C050020F4
:101C40006F12833A9805002060050020800500206F
:101C50005005002054050020580500205C05002098
:101C6000700500207805002064050020A4050020F0
:101C7000890500209A99193E0000FE428A0500203D
:101C800080B58EB04C48022101714C4A0260921C12
:101C900082600B900A9100F0F1FA00200990FEF7A3
:101CA00089FC474908800A980891FEF783FC089947
:101CB000488004200790FEF77DFC08998880062064
:101CC000FEF778FC0899C8800820FEF773FC3D49B0
:101CD00008800A200691FEF76DFC069948800C20CA
:101CE000FEF768FC069988800E20FEF763FC0699D3
:101CF000C8801020FEF75EFC334908801220059151
:101D0000FEF758FC059948801420FEF753FC05990E
:101D100088801620FEF74EFC0599C8801820FEF733
:101D200049FC00B2FEF7FEFA284908600CA8FEF74D
:101D3000A9FE27480D9941600C990160099801F0AE
:101D4000EBF92449086024480121017009980491A5
:101D5000FEF78AFE2149086004980391FEF784FE8D
:101D60001F4908600A980291FEF77EFE1D4908602F
:101D700003200191FEF778FE1B4908600398026872
:101D80001369104600919847029801680A6908464D
:101D90009047019801680A690846904700980168D1
:101DA0000A6908469047079800F05AFA0B98FEF720
:101DB000A9FF0EB080BDC0468C0500206000002049
:101DC0006405002078050020A40500206C05002093
:101DD0009C0500206005002088050020500500209B
:101DE00054050020580500205C05002080B5FEF752
:101DF00035FD00F02FFDFEF733FCFFF713F880BD33
:101E000080B588B08D4800780528019000D912E18E
:101E10000198810001A251188F46C04600F00AB80F
:101E200000F019B800F028B800F04BB800F0C2B8C4
:101E300000F06DB8A0480068C16888479F480068F6
:101E4000C16888479E480068C16888479D48006807
:101E5000C1688847EFE0984800680169884797485B
:101E60000068016988479648006801698847954875
:101E7000006801698847DEE0934841680068FEF722
:101E80001DFE6F49FEF70EFA002819D1FFE78A48B8
:101E900000684169884789480068416988478848DF
:101EA000006841698847874800684169884706A8F3
:101EB000FEF7E8FD84480799416006990160FFE755
:101EC000B9E0814841680068FEF7F8FD3F21090646
:101ED000FEF7E8F9002819D1FFE777480068416963
:101EE00088477648006841698847754800684169B5
:101EF0008847744800684169884704A8FEF7C2FD16
:101F000071480599416004990160FFE793E06E48CC
:101F100041680068FEF7D2FD4949FEF7C3F9002881
:101F200047D1FFE702A8FEF7ADFD6748039941607E
:101F300002990160434801784A1C0270042900910B
:101F400036D80098810001A251188F4600F00CB8D5
:101F500000F013B800F01AB800F021B800F000B893
:101F6000384800210170FFE756480068C16888477B
:101F700051480068016988471AE04F480068C16805
:101F800088474E4800680169884711E04B4800685F
:101F9000C16888474A4800680169884708E048489E
:101FA0000068C16888474748006801698847FFE7BB
:101FB000FFE740E0A9480078C007002805D0FFE708
:101FC0003D480068C168884704E03B4800680169F3
:101FD0008847FFE7A14800788007002805D5FFE77C
:101FE00036480068C168884704E0344800680169E1
:101FF0008847FFE7994800784007002805D5FFE7A4
:102000002F480068C168884704E02D4800680169CE
:102010008847FFE7914800780007002805D5FFE7CB
:1020200028480068C168884704E0264800680169BC
:102030008847FFE7FFE708B080BDC046BD05002028
:10204000CDCCCC3DCA05002080B586B00420FEF77B
:102050000BFD1949086005200391FEF705FD17499E
:10206000086006200291FEF7FFFC15490860072072
:102070000191FEF7F9FC1349086004A80091FEF7EE
:1020800001FD1148059941600499016003980168B8
:10209000CA680846904702980168CA68084690478F
:1020A00001980168CA680846904700980168CA68A4
:1020B0000846904706B080BDAC050020B005002062
:1020C000B4050020B8050020C00500207047704707
:1020D0007047000010B585B00A46034604AC207076
:1020E00003A801700078002802920193009008D0A4
:1020F000FFE70098012814D0FFE70098022820D0BD
:102100002FE004A80178012213468B4016490C6881
:102110001C430C60007882401448016891430160C0
:1021200020E004A80178012213468B400E490C6878
:102130009C430C60007882400C48016811430160A8
:1021400010E004A80178012213468B4006490C6870
:102150001C430C6000788240044801681143016010
:1021600000E0FFE705B010BD080401400C04014089
:1021700010B586B00A46034604AC207003A801706F
:102180003C4800780428029201935FD1FFE704A83D
:1021900000780328009055D80098810001A25118BA
:1021A0008F46C04600F006B800F016B800F026B81A
:1021B00000F036B803A80078002806D0FFE72748CB
:1021C000017801221143017005E024480178FE22C4
:1021D00011400170FFE735E003A80078002806D021
:1021E000FFE71E48017802221143017005E01B48F9
:1021F0000178FD2211400170FFE723E003A8007879
:10220000002806D0FFE71548017804221143017029
:1022100005E012480178FB2211400170FFE711E050
:1022200003A80078002806D0FFE70C4801780822B0
:102230001143017005E009480178F722114001704F
:10224000FFE7FFE705A80121017003E005A80021D1
:102250000170FFE705A8007806B010BDBC0500209E
:1022600082B0014601AA10700198024A10700091D4
:1022700002B07047BD05002000F0D8F983B00146D8
:10228000029001A8002202700091FFE701A80078E7
:1022900002990979884211DAFFE70298806801A95A
:1022A0000A78012383540298006809780022425476
:1022B000FFE70198401C01A90870E7E703B07047E9
:1022C000B0B587B013460C460546059004A80170CA
:1022D000039205990979007881420294019300954F
:1022E00004DCFFE706A80021017016E0059880686D
:1022F00004A90978405C01280BDCFFE70598006819
:1023000004A90978405C0399087006A801210170AE
:1023100003E006A800210170FFE706A8007807B0D7
:10232000B0BDB0B587B013460C460546059004A86D
:102330000170039205990979007881420294019312
:10234000009504DCFFE706A80021017016E005985F
:10235000806804A90978405C01280BDBFFE703983B
:1023600000780599096804AA1278885406A8012102
:10237000017003E006A800210170FFE706A80078BD
:1023800007B0B0BD80B584B0014602900298401EEF
:10239000000E0028019103D0FFE70120039012E016
:1023A0000298401E094908600020C1430090084679
:1023B000009900F0F3F806480099016005480722EB
:1023C00002600391FFE7039804B080BD14E000E0D1
:1023D00018E000E010E000E03E488188491C818060
:1023E0000421405E40F2E831884207DBFFE73948CC
:1023F000002181800168491C0160FFE77047C046E9
:1024000080B582B020480168012211430160FFE7D6
:102410001D4800680221084201D1FFE7F8E71B4888
:1024200001681B4A1140016001681A4A11400160AD
:1024300015480168184A11400160184801680F22C8
:10244000914301601648016840F203129143016014
:10245000016801221304994301600168D30799437D
:10246000016010480168914301600F48002101603C
:102470000192009101F02CFD0198C006009901F035
:10248000BFF902B080BDC0460010024004100240F7
:102490000C00FF08FFFFC277FFFFF2FE2C10024086
:1024A00030100240341002400810024080B582B063
:1024B0000748006840F2E831B0FBF1F0FFF762FF37
:1024C000044900220A608A80CA80019002B080BD5F
:1024D00064000020CC05002082B0014601AA1070E3
:1024E000107840B2002800910EDBFFE701A80078C9
:1024F00040B21F2102460A4001219140C008034A10
:102500001040034A8150FFE702B07047FCFFFF1FF5
:1025100000E100E070B584B00A46034603AC2070C9
:102520000291207840B200280193009218DBFFE767
:1025300003A8017849B20322D34319403A4C095900
:10254000007840B205461540EA00FF259540A943B2
:10255000029DAD01EDB295402943184001511BE0A9
:1025600003A801780F22114008390323DC432140DE
:102570002C4D4959007840B206461E40F300FF2614
:102580009E40B143029EB601F6B29E4031431040D8
:10259000083820404151FFE704B070BD70B584B0E9
:1025A0000A46034603AC20700291207840B200280E
:1025B0000193009218DBFFE703A8017849B20322D8
:1025C000D3431940184C0959007840B205461540CC
:1025D000EA00FF259540A943029DAD01EDB295406B
:1025E0002943184001511BE003A801780F22114034
:1025F00008390323DC4321400A4D4959007840B291
:1026000006461E40F300FF269E40B143029EB601DF
:10261000F6B29E4031431040083820404151FFE758
:1026200004B070BD1CED00E000E400E0BFF34F8F8C
:10263000034804490160BFF34F8FFFE700BFFDE788
:102640000CED00E00400FA058148016808221143FE
:102650000160FFE77E4800680821084201D0FFE7DB
:10266000F8E77B480168042211430160FFE77848DE
:1026700000680421084201D0FFE7F8E77047C04630
:1026800010B585B00A46034604AC2070039120784B
:10269000012802930192009004D0FFE700980228DD
:1026A0000FD01DE0124801680F221205914301600E
:1026B000039909050D4BC918114002680A430260CD
:1026C0000FE0094801680322120591430160039954
:1026D0000905064BC918114002680A43026000E070
:1026E000FFE705B010BDC046382401400000F0FFF0
:1026F0002C24014082B001460190019800280091ED
:1027000007D0FFE75248016840F60002114301601C
:1027100006E04F48016840F6000291430160FFE780
:1027200002B0704780B582B00448019001F0ECFA25
:10273000019801F0D5FA02B080BDC046090300003F
:10274000F648016840F20012114301607047C0462C
:10275000F24800680121084206D1FFE7EF4801680E
:10276000012211430160FFE77047C04610B584B0F5
:102770000A46034603AC207002A8017000780028C6
:10278000019200931BD0FFE703A80078C007002840
:1027900007D0FFE7E14801680122120511430160FB
:1027A000FFE703A800788007002807D5FFE7DB488C
:1027B000016848F2000211430160FFE71AE003A834
:1027C0000078C007002807D0FFE7D448016801223D
:1027D000120591430160FFE703A8007880070028F5
:1027E00007D5FFE7FA48016848F20002914301600B
:1027F000FFE7FFE704B010BD10B585B00A460346F9
:1028000004AC20700391207801280293019200907B
:1028100004D0FFE7009802280BD015E0EC480168CF
:102820000722520491430160039902680A4302603F
:102830000BE0E748016847F2000291430160039909
:1028400002680A43026000E0FFE705B010BDC04621
:1028500008240140B0B592B0434801F02DFA092098
:10286000C006032100221F230A90099108920793B2
:1028700000F0C9FC0A980899099A079B00F014FD1A
:1028800040F2005001F018FA089800F0F9F93748C2
:102890000B900BA808990176354A0D9201224276D9
:1028A00040F200130C9340F200440E94817605240C
:1028B0000F9442F20005109506900846069905947B
:1028C0000493039200F00AFA089800F0C9F90898F6
:1028D00000F094FA089800F0B3F9264801F0ECF9FA
:1028E000062000F0A3FFFFF71DFF022002900399CE
:1028F00000F016F90498039900F012F90898FFF710
:10290000F9FE03980599FFF7BBFE08980899059A08
:1029100000F032F803980399059A00F02DF8029818
:102920000299059A00F028F809980999059A00F08B
:1029300023F8042001900199059A00F01DF80398EE
:102940000399FFF713FF072041040398FFF754FF93
:10295000FFF7FEFEFFF778FEFFF7F2FE039800F0A8
:10296000BDF812B0B0BDC046110500004C240140B6
:10297000680000200906000070B588B013460C46B8
:10298000054607AE307006A801700592307805281C
:1029900002940195009318D8FFE74D48016804910F
:1029A00007A90A7805231C4654431F22A240049C11
:1029B0009443049406AA127809784B439A400499E8
:1029C000114304910499016040E007A800780B28A6
:1029D0001AD8FFE73D480168049107A90A78052342
:1029E0001C4654431E3C1F22A240049C9443049462
:1029F00006AA127809784B431E3B9A40049911436A
:102A000004910499016020E007A800780F281AD8E3
:102A1000FFE72D480168049107A90A7805231C46A1
:102A200054433C3C1F22A240049C9443049406AAB5
:102A3000127809784B433C3B9A4004991143049126
:102A40000499016000E0FFE7FFE7FFE706A80078D0
:102A5000092817D8FFE720480168039106A90A78DA
:102A600003231C4654430722A240039C944303942F
:102A7000059A09784B439A400399114303910399AE
:102A800001601FE006A80078122819D8FFE7114856
:102A90000168039106A90A7803231C4654431E3C8F
:102AA0000722A240039C94430394059A09784B4360
:102AB0001E3B9A400399114303910399016000E082
:102AC000FFE7FFE708B070BD2C240140302401402F
:102AD000342401400C2401401024014082B00146FE
:102AE00001AA10701078C0070028009107D0FFE7F6
:102AF000374801680122920511430160FFE701A8F0
:102B000000788007002807D5FFE7314801680122D7
:102B1000520511430160FFE702B0704708240140ED
:102B200084B00A460346039002A80170007800288A
:102B30000192009324D0FFE70398C005002807D531
:102B4000FFE72248016840F2001211430160FFE7ED
:102B500003984005002807D5FFE71C48016840F2AC
:102B6000004211430160FFE703988007002806D563
:102B7000FFE717480168022211430160FFE723E0E5
:102B80000398C005002807D5FFE71048016840F208
:102B9000001291430160FFE703984005002807D524
:102BA000FFE70A48016840F2004291430160FFE7F5
:102BB00003988007002806D5FFE705480168022230
:102BC00091430160FFE7FFE704B070470424014030
:102BD0000824014080B586B0014605AA108003A8EC
:102BE0000291FDF74FFFFFE704990398FDF766FF99
:102BF00005A9098801900846FDF794FB0749FDF7F0
:102C000013FB0199009008460099FDF767FB002827
:102C100001D1FFE7E8E706B080BDC04600007A4476
:102C200010B582B0014601AA1070107814224243F8
:102C30007B4813580124A3431350009102B010BDE8
:102C400010B582B0014601AA1070107814224243D8
:102C500073481358012423431350009102B010BD50
:102C600010B582B0014601AA1070107814224243B8
:102C70006B481358202423431350009102B010BD19
:102C800070B582B0014601AA1070107814231C465A
:102C90004443634825580126B543255014781D4602
:102CA000654300242C5010781D46454352482C5053
:102CB00010781D4645434E482C50107843434D48EC
:102CC0001C50107880000F22824003480368134391
:102CD0000360009102B070BD04000240B0B586B040
:102CE0000A46034605AC20700491207802930194B3
:102CF0000092FFF795FF0498006801990A78142361
:102D00001C4654433A4AA050049880680A781C46EE
:102D10005443384AA0500498008A0A781C46544309
:102D2000354AA05008781A4642433D48125803924B
:102D3000039A43F60074A2430392049A5468D56838
:102D40002C4352691443039A22430392039A0C784A
:102D500063431A500498007E01280AD1FFE705A8B2
:102D60000078142141432E480A5840231A430A5040
:102D700009E005A800781421414329480A58402356
:102D80009A430A50FFE70498407E01280AD1FFE7E2
:102D900005A800781421414321480A5880231A438A
:102DA0000A5009E005A80078142141431C480A583C
:102DB00080239A430A50FFE70498807E00280AD1B6
:102DC000FFE705A800781421414315480A5810234D
:102DD0009A430A5009E005A800781421414310489D
:102DE0000A5810231A430A50FFE706B0B0BDC04688
:102DF00010000240140002400C00024010B582B0E6
:102E0000014601AA10701078142242430448135856
:102E100044F20004A3431350009102B010BDC04619
:102E20000800024070B588B013460C46054607906E
:102E300006A8017005A90A700799494A16688E43C9
:102E4000166007992C4A16688E43166007992B4A1C
:102E500016688E4316600799294A16688E431660D5
:102E600000780028049403930295019004D0FFE7B2
:102E70000198012806D00BE0079839490A680243F7
:102E80000A6006E007981C490A6802430A6000E0ED
:102E9000FFE705A800780028009008D0FFE7009819
:102EA00001280FD0FFE70098022816D020E00798ED
:102EB00012490A6802430A60079811490A68824366
:102EC0000A6016E007980D490A6882430A6007986D
:102ED0000B490A6802430A600BE0079807490A6831
:102EE00002430A60079806490A6802430A6000E044
:102EF000FFE708B070BDC04604040140080401406B
:102F00000C04014082B0014601900198134A106000
:102F1000009102B07047C04685B0014603900F484B
:102F20000068039A104002900D480068039A104010
:102F3000019002980028009108D0FFE7019800282E
:102F400004D0FFE704A80121017003E004A80021D8
:102F50000170FFE704A8007805B070471404014031
:102F6000000401406B4801688022114301607047F2
:102F700080B586B0014605900F200004039100F053
:102F800027F804A90870087800281BD1FFE76148DA
:102F9000016802221143016005990C4B1960016818
:102FA0004023194301600F21090402900846019251
:102FB00000F00EF804A9087002980168019A914384
:102FC0000160FFE704A8007806B080BD142002402D
:102FD00080B586B00146059004A8012202700391D5
:102FE000FFE700F02BF804A908700598401E059033
:102FF000FFE704A800780021012802910BD1FFE728
:103000000598012100280190009101D101980090BC
:1030100000980290FFE70298C0070028E1D1FFE77F
:1030200004A80078012804D1FFE704A80521017055
:10303000FFE704A8007806B080BD000081B06846B4
:1030400000210170114800680121084204D0FFE707
:1030500068460121017015E00C4800681021084203
:1030600004D0FFE76846042101700AE007480068C1
:103070000421084204D0FFE7684602210170FFE7FF
:10308000FFE7FFE76846007801B070470C20024078
:10309000204800688021084206D0FFE70348044921
:1030A000016004490160FFE77047C0460420024008
:1030B00023016745AB89EFCD80B588B00A4603464A
:1030C000079006910F20000404920393FFF780FFFE
:1030D00005A908700878002817D1FFE70D48016896
:1030E0000122114301600699079B19600F21090411
:1030F000029008460192FFF76BFF05A9087002983D
:103100000168019A91430160FFE705A8007808B0C3
:1031100080BDC0461020024082B0014601AA107056
:1031200010784000024A1018009102B07047C04663
:1031300068000020B0B589B013460C4605460890DB
:10314000079106920898006A04900898406A0390D4
:1031500005A800210180029301940095FFE705A8CE
:10316000008807281ED8FFE705A8008801218140B4
:103170000698014210D0FFE705A8018889000F22B8
:103180008A40049991430491079900888000814006
:10319000049808430490FFE7FFE70598401C05A941
:1031A0000880DCE705A808210180FFE705A8008862
:1031B0000F2820D8FFE705A8008801218140069844
:1031C000014212D0FFE705A80188890020390F22AB
:1031D0008A40039991430391079900888000203821
:1031E0008140039808430390FFE7FFE70598401CE0
:1031F00005A90880DAE704980899086203980899F5
:10320000486209B0B0BDF0B58BB01C4615460E46FD
:1032100007460A900991089207930A98006805905A
:103220000A98C068049006A80021018003940295C2
:1032300001960097FFE706A800880F282CD8FFE723
:1032400006A8008801218140079801421ED0FFE7AF
:1032500006A801884900032213468B40059999432B
:103260000591099903885B009940059B0B430593E1
:10327000018849008A400499914304910899008883
:1032800040008140049808430490FFE7FFE7069858
:10329000401C06A90880CEE705980A9908600498A2
:1032A0000A99C8600BB0F0BDF0B58AB01C4615464F
:1032B0000E460746099008A8017007920693007809
:1032C0000128039502960194009706D1FFE706981E
:1032D00009994A6802434A6005E0069809994A68D4
:1032E00082434A60FFE709988068049005A800219E
:1032F0000180FFE705A800880F281ED8FFE705A872
:103300000088012181400698014210D0FFE705A8FE
:103310000188490003228A40049991430491079946
:10332000008840008140049808430490FFE7FFE7CD
:103330000598401C05A90880DCE704980999886075
:103340000AB0F0BD84B00A46034603900291029889
:1033500001280192009307D1FFE70398016840F22A
:1033600000421143016006E00398016840F2004208
:1033700091430160FFE704B070470000B0B58CB026
:1033800013460C4605460B900A91099202200393BE
:103390000294019500F012FB089008986849B0FB70
:1033A000F1F0069006987F2803D3FFE77F20069070
:1033B000FFE70B984068049004987F2188430490AD
:1033C000069804990143049104980B9948600A985F
:1033D0005C49884230D8FFE708985949B0FBF1F0C2
:1033E000401C059005987F2804D3FFE70B987F21A8
:1033F00001620CE00598022804D8FFE70B9802212F
:10340000016203E005980B990862FFE7FFE708985F
:103410000A994900B0FBF1F007900798032803D8F8
:10342000FFE704200790FFE70798484908400B99F9
:10343000CA690243CA6180E00A984349884241D878
:10344000FFE7069840F22C11414340F2E830B1FB0F
:10345000F0F0401C0B990862099800280ED1FFE794
:1034600008980A9903224A43B0FBF2F007900B98A0
:10347000C16944F200029143C1610DE008980A99C4
:1034800019224A43B0FBF2F007900B98C16944F24D
:1034900000021143C161FFE707980005002805D12C
:1034A000FFE70798012108430790FFE70B98C169E0
:1034B00048F200021143C16107980B99CA6902439F
:1034C000CA6139E006987821414340F2E830B1FB07
:1034D000F0F0401C0B990862099800280ED1FFE714
:1034E00008980A9903224A43B0FBF2F007900B9820
:1034F000C16944F200029143C1610DE008980A9944
:1035000019224A43B0FBF2F007900B98C16944F2CC
:1035100000021143C161FFE70B98C16948F2000244
:103520001143C16107980B99CA690243CA610B989C
:10353000902101224250FFE7FFE70CB0B0BDC0462A
:1035400040420F00A0860100801A0600FF0F000015
:1035500082B00146019001980069C0B2009102B0AA
:10356000704784B00A460346039002A801700078B1
:10357000039908610192009304B0704782B001463C
:1035800001900198026801231A430260009102B081
:103590007047B0B584B00A460346039002A8018084
:1035A00000881F2104460C400121A140039C800992
:1035B00025588D4325500192009304B0B0BDB0B59D
:1035C00084B00A460346039002A8018000881F21A8
:1035D00004460C400121A140039C800925580D435D
:1035E00025500192009304B0B0BD000086B00A4699
:1035F00003460590049104980E4988420392029371
:1036000007D1FFE705984069059989690190009104
:103610000DE004981F21090402460A40110C012202
:103620008A400599800D0B5893430B50FFE706B075
:103630007047C0460901010570B588B00A460346C7
:10364000069005910020049003900698406840F28F
:1036500000410840029006980599234C21408909B1
:10366000405805991F24214001252E468E403040A8
:10367000049006980599890D405805992404214025
:10368000090C8D4028400390059818498842019202
:10369000009305D0FFE70598154988420FD1FFE751
:1036A0000498002807D0FFE70298002803D0FFE71E
:1036B0000120049002E000200490FFE7FFE7039858
:1036C000002808D0FFE70498002804D0FFE707A8E7
:1036D0000121017003E007A800210170FFE707A89E
:1036E000007808B070BDC046C0FF000009010605A3
:1036F00009010705F0B589B01C4615460E46074678
:10370000089007910692059300200490089800689D
:103710000490049802218843049007980499014377
:103720000491049808990860059807490840059095
:1037300006980599084308998860039402950196B4
:10374000009709B0F0BDC046FF03000085B00A46EF
:1037500003460490039100200290049800680290B0
:10376000029848F2000188430290039802990143AD
:1037700002910298049908600192009305B0704785
:1037800080B588B0002007900490FEF78FFEFEF70A
:103790002DFBFEF775FAFCF7E1FEFEF755FCFCF792
:1037A0003DFF0620FDF760F906900720FDF75CF964
:1037B0000590FFE7FEF786F8FDF70EF9002805D023
:1037C000FFE7FDF735FBFEF757FDFFE7FEF718FBB8
:1037D000F0E710B586B00A46034605AC207004A891
:1037E00001700178207840B2039302940192FEF7B1
:1037F00091FE0298017848B2FEF76EFE06B010BD49
:1038000010B584B00A4603460390029103980299CA
:10381000044C21400843044908600192009304B01D
:1038200010BDC04680FFFF1F08ED00E010B583B05B
:10383000014602AA10705E4803684CF20004A343DC
:1038400003605C4803685C4C2340036010780928DF
:103850000191009000D9A7E00098810001A25118C1
:103860008F46C04600F012B800F01CB800F026B831
:1038700000F02EB800F03BB800F046B800F056B8A3
:1038800000F061B800F071B800F07CB849480168F8
:103890000122120491430160016840F20012914339
:1038A000016082E043480168012212041143016073
:1038B000016840F200129143016076E0F44801682B
:1038C0000160FA48016840F20012114301606CE0A7
:1038D000EF4801680160F54801680122D2071143F1
:1038E0000160016840F20012114301605DE0E848A8
:1038F000016844F2000211430160EC48016840F2A3
:1039000000121143016050E0E148016844F20002F6
:1039100011430160E54801680122D20711430160AB
:10392000016840F20012114301603EE0D84801688E
:1039300048F2000211430160DC48016840F20012C5
:103940001143016031E0D248016848F2000211439E
:103950000160D64801680122D20711430160016865
:1039600040F20012114301601FE0C94801684CF2A7
:10397000000211430160CD48016840F2001211437A
:10398000016012E0C24801684CF20002114301607C
:10399000C64801680122D20711430160016840F264
:1039A00000121143016000E0FFE703B010BDC04604
:1039B0000410024030100240FFFEFE7F95B0014629
:1039C00014AA1070002013901290119010900F9074
:1039D0000E900D900C900B900A9009900890079013
:1039E000069005900490AA4800680C2210408008B8
:1039F0001390139800280391029008D0FFE70298D3
:103A0000012807D0FFE70298022806D045E0A34826
:103A10000F9045E0A1480F9042E09D4801680F22B9
:103A200092041140890C099100680121C9060840DF
:103A3000C00E08900898012804D1FFE709981130BA
:103A400009900BE009980F2803D1FFE71020099097
:103A500003E00998801C0990FFE7FFE78C480068A5
:103A6000012109040840000C0790079800280ED097
:103A7000FFE7894800680F210840401C069006981F
:103A80008649B1FBF0F0099941430F9104E0099890
:103A9000804941430F91FFE702E080480F90FFE724
:103AA0007B480168F02211400909059105997C4A7B
:103AB000515C04910F99049AD1400E91016840F233
:103AC00000721140090A05910599764A515C0491EA
:103AD0000E99049AD1400D91006843F60001084008
:103AE000C00A059005987049085C04900E980499E6
:103AF000C8400C9014A800780528019000D9C3E0B4
:103B00000198810001A251188F46C04600F00AB802
:103B100000F00BB800F00CB800F00DB800F00EB8D3
:103B200000F083B80F981090AFE00E981090ACE0C2
:103B30000D981090A9E00C981090A6E05B480068E2
:103B400040F20011084088420FD0FFE75748006854
:103B5000012109040840884203D0FFE755480B9033
:103B600002E053480B90FFE75CE0D64800684CF257
:103B700000010840800B12904C480068C00F119063
:103B80001298032800904BD80098810001A2511888
:103B90008F46C04600F006B800F013B800F020B819
:103BA00000F02FB81198002804D1FFE70C984008C6
:103BB0000B9005E00E980321B0FBF1F00B90FFE7AE
:103BC0002FE01198002804D1FFE70C9880080B9093
:103BD00005E00E980521B0FBF1F00B90FFE720E027
:103BE0001198002806D1FFE70C980621B0FBF1F0F0
:103BF0000B9005E00E980721B0FBF1F00B90FFE76A
:103C00000FE01198002804D1FFE70C98C0080B9032
:103C100005E00E980921B0FBF1F00B90FFE700E002
:103C2000FFE7FFE70B9810902FE020480068032182
:103C3000084203D1FFE70C980A9022E01B48006875
:103C400003210840012803D1FFE70F980A9017E0ED
:103C50001648006803210840022804D1FFE748F213
:103C600000000A900BE01148006803210840032877
:103C700003D1FFE709480A9000E0FFE7FFE7FFE70D
:103C8000FFE70A98109000E0FFE7109815B0704722
:103C90000410024000093D002C10024000127A007E
:103CA000F63E0008063F00080E3F000830100240B4
:103CB000003FAB01809FD50010B582B0014601AA3C
:103CC000108010881F220346134001229A40800969
:103CD000794BC4581443C450009102B010BDC04683
:103CE00010B582B0014601AA108010881F22034639
:103CF000134001229A4080096F4BC4589443C4502A
:103D0000009102B010BDC04610B582B0014601AAB4
:103D1000108010881F220346134001229A40800918
:103D2000654BC4581443C450009102B010BDC04646
:103D300070B587B00A46034606AC207005A801702E
:103D400001780325294089000F268E40F143049114
:103D5000217804782C40A400A140039100788008C9
:103D6000032802920193009034D80098810001A2A8
:103D700051188F4600F006B800F00EB800F016B8E3
:103D800000F01EB8049818490A6802400A600398B7
:103D90000A6802430A601EE0049812490A68024059
:103DA0000A6003980A6802430A6014E004980C4908
:103DB0000A6802400A6003980A6802430A600AE03F
:103DC000049806490A6802400A6003980A68024398
:103DD0000A6000E0FFE707B070BDC0461400014074
:103DE000100001400C0001400800014083B0002099
:103DF0000290019030480168012211430160FFE701
:103E00000298401C02902C48006802210840019052
:103E1000FFE7019800210028009107D1FFE70298F1
:103E200026494018411E88410090FFE70098C007CE
:103E30000028E5D1FFE7204800680221084202D1AE
:103E4000FFE7FFE7FEE71E480168072291430222D1
:103E5000114301601B48016801600168016001684D
:103E600001600168184A114001600168174A114356
:103E70000160114801680122120611430160FFE749
:103E80000D48006801214906084201D1FFE7F7E724
:103E90000C4801680322914301600168022211432A
:103EA0000160FFE7074800680821084201D1FFE7E9
:103EB000F8E703B07047C0460010024000FBFFFF68
:103EC0000020024004100240FFFFC2F70000040877
:103ED00080B5FFF78BFF80BD02E008C8121F08C144
:103EE000002AFAD170477047002001E001C1121F7B
:103EF000002AFBD170470000000000000000010212
:103F00000304060708090000000001020304000082
:103F10000000010203040000383F000800000020F8
:103F200068000000D83E0008A03F0008680000209C
:103F300070090000E83E000800040048010000008D
:103F400020000000001400480100000001000000F3
:103F500000040048010000000800000000000048C4
:103F60000100000000010000000000480100000006
:103F70002000000000000048010000004000000098
:103F8000000000480100000080000000000400481C
:103F90000100000001000000050A0B0C00A24A0409
:04000005080000CD22
:00000001FF
